S00B000050574D2E7372656325
S214080000E00A002065010800610108006101080097
S2140800106101080061010800610108000000000095
S2140800200000000000000000000000006101080059
S2140800306101080000000000610108006101080075
S21408004061010800610108006101080061010800FB
S21408005061010800610108006101080061010800EB
S2140800609102080061010800000000006101080014
S2140800706101080061010800610108000000000035
S2140800800000000061010800610108006101080025
S21408009061010800610108006101080061010800AB
S2140800A06101080000000000610108006101080005
S2140800B05104080061010800610108006101080098
S2140800C0610108006101080061010800610108007B
S2140800D0610108006101080061010800610108006B
S2140800E0610108006101080061010800610108005B
S2140800F06101080010B5054C237833B9044B13B1D9
S2140801000448AFF300800123237010BD7405002057
S214080110000000002C1508000C4B43B10C4810B525
S2140801200C49AFF300800C48036823B910BD0A4891
S214080130036833B97047094B002BF7D0BDE8104069
S2140801401847064B002BF5D0184700BF00000000E4
S2140801502C150800780500202C1508000000000063
S214080160FEE7000008B5184B184A9A4210D0184BFC
S214080170154A9A420CD2013B9B1A23F00303043318
S2140801801344124951F8040B42F8040B9A42F9D169
S214080190104B114A9A420AD2013B9B1A23F00303DA
S2140801A004331344002142F8041B9342FBD10B4B43
S2140801B023F0604323F07F03094A9360094B98476E
S2140801C0094B9847FEE700BF000000202C150800E2
S2140801D074050020E00600207405002000000800D2
S2140801E000ED00E0911308000D0308004FF480634B
S2140801F0204A136002F5007213601F4B1B6A13F047
S214080200807F07D11D4A1C4B1A621A46936E13F05C
S214080210010FFBD01A4A184B1A621A46936E13F44B
S214080220803FFBD0144A136B23F0030343F001030B
S2140802301363936E13F0080FFBD0124A0E4B9A62A4
S2140802401A46936E13F0020FFBD011220A4B1A635C
S2140802501A46936E13F0080FFBD01222064B1A6349
S2140802601A46936E13F0080FFBD0074A074B1A601E
S214080270704700BF000A0E4000060E400908370007
S21408028009083701013F0D2000BD010500000020C8
S21408029008B5134B5B6913F0010F19D0104B4FF0DC
S2140802A0FF32DA609B69DBB20E4A13705378107817
S2140802B0D11808710133DBB25370082B09D01378B4
S2140802C03BB1084B1878084B98470122044B9A60B4
S2140802D008BD044B00225A7001221A73F1E700BFCA
S2140802E000080E4090050020F9040800064B5A68DE
S2140802F042F000725A601A6942F000721A615A6B2C
S21408030042F000725A63704700120E402DE9F04121
S21408031082B02F4B98474FF400422E4B5A602E4B14
S21408032098472E4B2E4D05F11004009344F6206294
S214080330002120462B4EB0474FF47A73009340F2C4
S214080340E73201212046284CA047284C0094234633
S2140803500222062105F14800B047009423460522EC
S214080360072105F18000B047009423460A22082199
S21408037005F1B800B0470122114605F1F0001C4B04
S21408038098471C4B98472E4605F11008164F337BA6
S214080390002BFDD0B379F579AD1105EB8305337ADB
S2140803A0747AA41104EB83044FF47A7300932246FC
S2140803B029464046B847E8B20F4DA8470A20A8473E
S2140803C0E0B2A8470A20A84700233373DFE700BF38
S2140803D0ED010800501A0E40ED0208000000C84261
S2140803E0900500201D050800310908000000484255
S2140803F059070800A5040800F9040800114AB2F8CD
S214080400283101331BB2A2F8283140F2DD3293427C
S21408041007DD0D490A6B42F000720A63B3F57A7F6E
S21408042000DA704710B54B6B43F000734B6300223D
S214080430044BA3F828216120044CA0470A20A047B3
S21408044010BD00BF9005002000120E40F9040800F9
S21408045008B5054B1B6E03B908BD0448044B9847FE
S214080460044B9847F8E700BF00000840A0050020A6
S2140804703D090800FD030800094B00221A645A6467
S2140804809A67DA67C3F8B020C3F8B420C3F8E82040
S214080490C3F8EC20C3F82021C3F82421704700BF16
S2140804A090050020124B4FF440725A645A60196F38
S2140804B021F4407119675A664FF48072A3F50063F9
S2140804C01A6103F50073AC2119602E2119624FF4E6
S2140804D00061596040F20221C3F820114FF0FF3145
S2140804E0D9600121996003490A6050221A60704752
S2140804F0000E0E4000E100E0074B5B6913F0020FA8
S21408050008D0054BD8611A46536913F4007FFBD010
S214080510002070470120704700080E402DE9F04F74
S21408052083B004460D4617469B46DDF830A00260A9
S2140805304360C0F808A0C1607B4E7C4B1868B04783
S214080540804689463846B04702460B46784EB0473E
S214080550784F02460B4640464946B847764EB0475F
S2140805606062764B9847DFF8E481C047CDE9000122
S2140805705846C047DFF8D8B102460B4600207049F7
S214080580D84700226E4BB847DFF8C891DDE900234C
S214080590C847B0470130A0625046C04702460B46DF
S2140805A000206749D8470022654BB847DDE9002395
S2140805B0C847B0470130E06205EBC502614B03EB64
S2140805C08203D9684A68186902434A60D9684A6843
S2140805D0586902434A60D9680A6F986902430A67ED
S2140805E0D9680A6FDB6913430B67042D40F38E80C6
S2140805F05548D0F8006105EBC502524901EB820266
S2140806009268012393403343C0F800314D4A4FEABD
S214080610C50E0EEB05039B00D118D6584868800116
S21408062002273750D0584E6800EB8610066A002618
S21408063046604E68D05800EB8610466846604E689E
S214080640D05800EB8610466846F4804646604E68EA
S214080650D05800EB8610466846F4004646604E685A
S214080660D05800EB8610466846F4000646604E688A
S214080670D05800EB8610466846F0004646604E683E
S214080680D05800EB8610466846F4803646604E68BA
S214080690D05800EB8610466846F0007646604E68EE
S2140806A0D05800EB8610466846F4002646604E682A
S2140806B0D05800EB8610466846F0806646604E685E
S2140806C0D05800EB8610466846F480664660D058D8
S2140806D04F68A66A00EB87104661D0584F68E66AEE
S2140806E000EB87108661D0584E68616A00EB86106A
S2140806F0C161754402EB850569688901D25853586B
S21408070043F00503535003B0BDE8F08F0E48066962
S21408071005EBC5020B4901EB820292680123934060
S2140807203343036172E700BF250C08000000002071
S214080730AD090800650F080035110800E112080029
S214080740000059400400002000060E40690C08000E
S214080750A9090800110D08002DE9F04705460C46C2
S2140807609246C1600261444F444B1868B847444EED
S2140807700022444BB047804689465046B8473CA3BB
S214080780D3E90023B04702460B4640464946B047E1
S2140807903D4B98476862042C58DC3C48066904EBD5
S2140807A0C4023B4901EB820292680123934033431B
S2140807B00361374904EBC4039B00CA18CE58506837
S2140807C0800100273750C858566800EB86104FF04F
S2140807D0FF368662C858566800EB8610066A476079
S2140807E05668C85800EB8610466846605668C8586B
S2140807F000EB8610466846F480464660C858566839
S2140808006D6A00EB8610C561CB58516803EB8113FF
S2140808101021596292F92030BB4208DB590903F0CF
S2140808201F03012202FA03F31A4A42F82130184A33
S214080830E300191902EB810463689B0152F8211042
S214080840CA5842F00502CA50BDE8F0870F48D0F8EB
S214080850006104EBC4020E4901EB82029268012390
S21408086093403343C0F80031A3E700BFAFF30080DE
S214080870FCA9F1D24D62503F250C0800000000206C
S214080880110D08000000E03F3511080000060E4074
S2140808900400002000E100E0C068074BC200111801
S2140808A053F82110024403EB82035B6801EB8313C1
S2140808B000225A61704700BF04000020C068074B3A
S2140808C0C200111853F82110024403EB82035B6838
S2140808D001EB831300229A61704700BF04000020D2
S2140808E010B4C468074BE200111953F821102244CB
S2140808F003EB82035B68826A01EB83135A6110BCC0
S214080900704700BF0400002010B4C468074BE2001C
S214080910111953F82110224403EB82035B68C26A5C
S21408092001EB83139A6110BC704700BF04000020D7
S21408093041618261C361009B0362704710B504463B
S214080940036B01330363426B013242634169826978
S2140809500A4493420AD28B420DD2616BE269236A3B
S214080960134499420AD291420ED210BD084B9847BA
S21408097000232363F1E7074B9847EEE72046064B2C
S21408098098470023636310BD2046044B9847ECE75E
S214080990E10808009908080009090800BD080800C9
S2140809A081F0004102E000BF83F0004330B54FEA13
S2140809B041044FEA430594EA050F08BF90EA020F80
S2140809C01FBF54EA000C55EA020C7FEA645C7FEA13
S2140809D0655C00F0E2804FEA5454D4EB5555B8BF36
S2140809E06D420CDD2C4480EA020281EA030382EAA7
S2140809F0000083EA010180EA020281EA0303362D39
S214080A0088BF30BD11F0004F4FEA01314FF4801C0B
S214080A104CEA113102D0404261EB410113F0004F1D
S214080A204FEA03334CEA133302D0524263EB4303D4
S214080A3094EA050F00F0A780A4F10104D5F1200E72
S214080A400DDB02FA0EFC22FA05F2801841F10001CD
S214080A5003FA0EF2801843FA05F359410EE0A5F1A1
S214080A6020050EF1200E012A03FA0EFC28BF4CF0D2
S214080A70020C43FA05F3C01851EBE37101F0004588
S214080A8007D54FF0000EDCF1000C7EEB00006EEB95
S214080A900101B1F5801F1BD3B1F5001F0CD349081F
S214080AA05FEA30004FEA3C0C04F101044FEA445276
S214080AB012F5800F80F09A80BCF1004F08BF5FEAFD
S214080AC0500C50F1000041EB045141EA050130BDDD
S214080AD05FEA4C0C404141EB010111F4801FA4F180
S214080AE00104E9D191F0000F04BF01460020B1FAD5
S214080AF081F308BF2033A3F10B03B3F120020CDA0D
S214080B000C3208DD02F1140CC2F10C0201FA0CF0EA
S214080B1021FA02F10CE002F11402D8BFC2F1200C4F
S214080B2001FA02F120FA0CFCDCBF41EA0C01904005
S214080B30E41AA2BF01EB0451294330BD6FEA04044E
S214080B401F3C1CDA0C340EDC04F11404C4F1200239
S214080B5020FA04F001FA02F340EA030021FA04F34B
S214080B6045EA030130BDC4F10C04C4F1200220FAA2
S214080B7002F001FA04F340EA0300294630BD21FAE0
S214080B8004F0294630BD94F0000F83F4801306BFA6
S214080B9081F480110134013D4EE77FEA645C18BF9A
S214080BA07FEA655C29D094EA050F08BF90EA020F31
S214080BB005D054EA000C04BF1946104630BD91EA29
S214080BC0030F1EBF0021002030BD5FEA545C05D12C
S214080BD04000494128BF41F0004130BD14F580046B
S214080BE03CBF01F5801130BD01F0004545F0FE41DF
S214080BF041F470014FF0000030BD7FEA645C1ABF14
S214080C00194610467FEA655C1CBF0B46024650EA4A
S214080C10013406BF52EA033591EA030F41F4002176
S214080C2030BD00BF90F0000F04BF0021704730B5FC
S214080C304FF4806404F132044FF000054FF00001D1
S214080C4050E700BF90F0000F04BF0021704730B592
S214080C504FF4806404F1320410F0004548BF404267
S214080C604FF000013EE700BF42004FEAE2014FEABC
S214080C7031014FEA02701FBF12F07F4393F07F4F97
S214080C8081F06051704792F0000F14BF93F07F4FC9
S214080C90704730B54FF4607401F0004521F000410C
S214080CA020E700BF50EA010208BF704730B54FF092
S214080CB000050AE050EA010208BF704730B511F097
S214080CC0004502D5404261EB41014FF4806404F1CF
S214080CD032045FEA915C3FF4DCAE4FF003025FEA51
S214080CE0DC0C18BF03325FEADC0C18BF033202EBD9
S214080CF0DC02C2F1200300FA03FC20FA02F001FA33
S214080D0003FE40EA0E0021FA02F11444C1E600BFD1
S214080D1070B54FF0FF0C4CF4E06C1CEA11541DBF84
S214080D201CEA135594EA0C0F95EA0C0F00F0DEF84F
S214080D302C4481EA030621EA4C5123EA4C5350EA34
S214080D40013518BF52EA033541F4801143F4801385
S214080D5038D0A0FB02CE4FF00005E1FB02E506F016
S214080D600042E0FB03E54FF00006E1FB03569CF06B
S214080D70000F18BF4EF0010EA4F1FF04B6F5007F71
S214080D8064F5407404D25FEA4E0E6D4146EB0606E3
S214080D9042EAC62141EA55514FEAC52040EA5E506C
S214080DA04FEACE2EB4F1FD0C88BFBCF5E06F1ED816
S214080DB0BEF1004F08BF5FEA500E50F1000041EB4D
S214080DC0045170BD06F0004646EA010140EA0200FA
S214080DD081EA0301B4EB5C04C2BFD4EB0C0541EA1C
S214080DE0045170BD41F480114FF0000E013C00F331
S214080DF0AB8014F1360FDEBF002001F0004170BD55
S214080E00C4F10004203C35DA0C341BDC04F114046D
S214080E10C4F1200500FA05F320FA04F001FA05F2F9
S214080E2040EA020001F0004221F0004110EBD370C6
S214080E3021FA04F642EB06015EEA430E08BF20EAF2
S214080E40D37070BDC4F10C04C4F1200500FA04F395
S214080E5020FA05F001FA04F240EA020001F0004127
S214080E6010EBD37041F100015EEA430E08BF20EA9A
S214080E70D37070BDC4F1200500FA05F24EEA020EE2
S214080E8020FA04F301FA05F243EA020321FA04F011
S214080E9001F0004121FA04F220EA020000EBD370C8
S214080EA05EEA430E08BF20EAD37070BD94F0000FC8
S214080EB00FD101F00046400041EB010111F4801FFC
S214080EC008BF013CF7D041EA060195F0000F18BFAD
S214080ED0704703F00046520043EB030313F4801FE9
S214080EE008BF013DF7D043EA0603704794EA0C0FA3
S214080EF00CEA135518BF95EA0C0F0CD050EA4106B9
S214080F0018BF52EA4306D1D181EA030101F0004135
S214080F104FF0000070BD50EA410606BF104619465D
S214080F2052EA430619D094EA0C0F02D150EA013669
S214080F3013D195EA0C0F05D152EA03361CBF1046AA
S214080F4019460AD181EA030101F0004141F0FE4149
S214080F5041F470014FF0000070BD41F0FE4141F4CD
S214080F60780170BD70B54FF0FF0C4CF4E06C1CEACD
S214080F7011541DBF1CEA135594EA0C0F95EA0C0F82
S214080F8000F0A7F8A4EB050481EA030E52EA03353D
S214080F904FEA013100F088804FEA03334FF080555E
S214080FA045EA131343EA12634FEA022245EA11158B
S214080FB045EA10654FEA00260EF000419D4208BF3C
S214080FC0964244F1FD0404F5407402D25B084FEAE9
S214080FD03202B61A65EB03055B084FEA32024FF495
S214080FE080104FF4002CB6EB020E75EB030E22BFF2
S214080FF0B61A754640EA0C005B084FEA3202B6EBB2
S214081000020E75EB030E22BFB61A754640EA5C0060
S2140810105B084FEA3202B6EB020E75EB030E22BFF0
S214081020B61A754640EA9C005B084FEA3202B6EBF1
S214081030020E75EB030E22BFB61A754640EADC00B0
S21408104055EA060E18D04FEA051545EA16754FEA12
S21408105006164FEAC30343EA52734FEAC2025FEA30
S2140810601C1CC0D111F4801F0BD141EA00014FF0BF
S21408107000004FF0004CB6E711F4801F04BF014390
S2140810800020B4F1FD0C88BFBCF5E06F3FF6AFAEAC
S214081090B5EB030C04BFB6EB020C5FEA500C50F13C
S2140810A0000041EB045170BD0EF0004E4EEA1131BF
S2140810B014EB5C04C2BFD4EB0C0541EA045170BDC6
S2140810C041F480114FF0000E013C90E645EA060E0A
S2140810D08DE60CEA135594EA0C0F08BF95EA0C0F38
S2140810E03FF43BAF94EA0C0F0AD150EA01347FF480
S2140810F034AF95EA0C0F7FF425AF104619462CE757
S21408110095EA0C0F06D152EA03353FF4FDAE1046B9
S214081110194622E750EA410618BF52EA43067FF40A
S214081120C5AE50EA41047FF40DAF52EA43057FF49A
S214081130EBAE12E74A0011D212F5001211D20DD505
S2140811406FF47873B3EB62520ED44FEAC12343F0C0
S214081150004343EA505323FA02F070474FF000006A
S214081160704750EA013002D14FF0FF3070474FF019
S2140811700000704780F0004002E000BF81F00041A8
S21408118042001FBF5FEA410392EA030F7FEA226C20
S2140811907FEA236C6AD04FEA1262D2EB1363C1BFB0
S2140811A0D218414048404140B8BF5B42192B88BF1F
S2140811B0704710F0004F40F4000020F07F4018BF42
S2140811C0404211F0004F41F4000121F07F4118BF62
S2140811D0494292EA030F3FD0A2F1010241FA03FC0A
S2140811E010EB0C00C3F1200301FA03F100F00043F2
S2140811F002D5494260EB4000B0F5000F13D3B0F1BA
S214081200807F06D340084FEA310102F10102FE2A28
S21408121051D2B1F1004F40EBC25008BF20F0010098
S21408122040EA03007047490040EB000010F4000F46
S214081230A2F10102EDD1B0FA80FCACF1080CB2EBD9
S2140812400C0200FA0CF0AABF00EBC2505242184338
S214081250BCBFD0401843704792F0000F81F40001DD
S21408126006BF80F400000132013BB5E74FEA4103B0
S2140812707FEA226C18BF7FEA236C21D092EA030F1C
S21408128004D092F0000F08BF0846704790EA010F96
S2140812901CBF0020704712F07F4F04D1400028BFC3
S2140812A040F00040704712F100723CBF00F50000A5
S2140812B0704700F0004343F0FE4040F400007047DB
S2140812C07FEA226216BF08467FEA23630146420287
S2140812D006BF5FEA412390EA010F40F4800070479A
S2140812E04FF0000304E000BF10F0004348BF404240
S2140812F05FEA000C08BF704743F0964301464FF07C
S21408130000001CE050EA010208BF70474FF00003D7
S2140813100AE000BF50EA010208BF704711F0004318
S21408132002D5404261EB41015FEA010C02BF8446E8
S2140813300146002043F0B64308BFA3F18053A3F547
S2140813400003BCFA8CF2083AA3EBC25310DB01FA8E
S21408135002FC634400FA02FCC2F12002BCF1004F12
S21408136020FA02F243EB020008BF20F001007047A3
S21408137002F1200201FA02FCC2F1200250EA4C00F7
S21408138021FA02F243EB020008BF20EADC7070473D
S21408139070B50F4E0F4D761BB61018BF002405D03B
S2140813A0013455F8043B9847A642F9D10A4E0B4D2E
S2140813B000F0A8F8761BB61018BF002406D0013433
S2140813C055F8043B9847A642F9D170BD70BD00BFDA
S2140813D010150800101508001C1508001015080040
S2140813E0024B13B1024800F005B870470000000031
S2140813F001140800002301461A46184600F01EB8D5
S21408140038B50A4C0A4D641BA4100AD004F1804370
S214081410013B05EB8305013C55F804399847002C39
S214081420F9D1BDE8384000F079B800BF2C1508009F
S21408143028150800704700BF704700BF2DE9F8431D
S2140814402C4D0646286898460F469146FFF7F2FF49
S214081450294B1C68D4F84831002B3ED05A681F2AFE
S2140814601CDC02F1010E76B1012103EB8204C4F8FC
S2140814708890D3F8880191400843022EC3F8880163
S214081480C4F8088123D00232C3F804E0286843F879
S2140814902270FFF7D1FF0020BDE8F883174B0BB387
S2140814A04FF4C870AFF300800346D8B10020D4F8D4
S2140814B048114FF0010E586019600246C4F84831CA
S2140814C0C3F88801C3F88C01002EDCD0CCE7D3F82B
S2140814D08C010143C3F88C11D5E704F5A673C4F84C
S2140814E04831BBE72868FFF7A7FF4FF0FF30BDE895
S2140814F0F88300BF700500200015080000000000F3
S21408150048010020F8B500BFF8BC08BC9E467047E6
S214081510E11308001901080079040800F8B500BFAF
S210081520F8BC08BC9E467047F5000800A2
S21408152C00093D0000000840000000001B000000F9
S21408153C00100E4000000002000000080000000228
S21408154C000000081B000000000008400100000016
S21408155C1C00000000000000000000000000000056
S21408156C00000000000000001C00000000000840FE
S21408157C020000001D000000000000000000000033
S21408158C0000000000000000000000001D00000025
S21408159C00400840000000001E000000000000008C
S2140815AC0000000000000000000000000000000022
S2140815BC1E00000000400840010000001F0000004C
S2140815CC0000000000000000000000000000000002
S2140815DC000000001F000000004008400200000049
S2140815EC00000000000000000000000000000000E2
S2140815FC00000000000000002000000000800840EA
S21408160C000000000100000000120E40000000025E
S21408161C0000000400000002000000042100000086
S21408162C00800840010000000200000000120E4076
S21408163C0000001000000020000000100000002031
S21408164C2200000000800840020000000300000092
S21408165C00140E408000000000010000800000000E
S21408166C00010000230000000000000034040020E5
S21408167C9C04002004050020000000000000000068
S21408168C0000000000000000000000000000000041
S21408169C0000000000000000000000000000000031
S2140816AC0000000000000000000000000000000021
S2140816BC0000000000000000000000000000000011
S2140816CC0000000000000000000000000000000001
S2140816DC00000000000000000000000000000000F1
S2140816EC00000000000000000000000000000000E1
S2140816FC00000000000000000000000000000000D1
S21408170C00000000000000000000000000000000C0
S21408171C01000000000000000E33CDAB34126DE65D
S21408172CECDE05000B0000000000000000000000C6
S21408173C0000000000000000000000000000000090
S21408174C0000000000000000000000000000000080
S21408175C0000000000000000000000000000000070
S21408176C0000000000000000000000000000000060
S208081A9CBC06002057
S804080000F3
